{
  "contractName": "NftAuction",
  "abi": [
    {
      "inputs": [
        {
          "internalType": "uint256",
          "name": "_startingPrice",
          "type": "uint256"
        },
        {
          "internalType": "uint256",
          "name": "_discountRate",
          "type": "uint256"
        },
        {
          "internalType": "address",
          "name": "_nft",
          "type": "address"
        },
        {
          "internalType": "uint256",
          "name": "_nftId",
          "type": "uint256"
        }
      ],
      "stateMutability": "nonpayable",
      "type": "constructor"
    },
    {
      "inputs": [],
      "name": "discountRate",
      "outputs": [
        {
          "internalType": "uint256",
          "name": "",
          "type": "uint256"
        }
      ],
      "stateMutability": "view",
      "type": "function"
    },
    {
      "inputs": [],
      "name": "expiresAt",
      "outputs": [
        {
          "internalType": "uint256",
          "name": "",
          "type": "uint256"
        }
      ],
      "stateMutability": "view",
      "type": "function"
    },
    {
      "inputs": [],
      "name": "nft",
      "outputs": [
        {
          "internalType": "contract IERC721",
          "name": "",
          "type": "address"
        }
      ],
      "stateMutability": "view",
      "type": "function"
    },
    {
      "inputs": [],
      "name": "nftId",
      "outputs": [
        {
          "internalType": "uint256",
          "name": "",
          "type": "uint256"
        }
      ],
      "stateMutability": "view",
      "type": "function"
    },
    {
      "inputs": [],
      "name": "seller",
      "outputs": [
        {
          "internalType": "address payable",
          "name": "",
          "type": "address"
        }
      ],
      "stateMutability": "view",
      "type": "function"
    },
    {
      "inputs": [],
      "name": "startAt",
      "outputs": [
        {
          "internalType": "uint256",
          "name": "",
          "type": "uint256"
        }
      ],
      "stateMutability": "view",
      "type": "function"
    },
    {
      "inputs": [],
      "name": "startingPrice",
      "outputs": [
        {
          "internalType": "uint256",
          "name": "",
          "type": "uint256"
        }
      ],
      "stateMutability": "view",
      "type": "function"
    },
    {
      "inputs": [],
      "name": "getPrice",
      "outputs": [
        {
          "internalType": "uint256",
          "name": "",
          "type": "uint256"
        }
      ],
      "stateMutability": "view",
      "type": "function"
    },
    {
      "inputs": [],
      "name": "buy",
      "outputs": [],
      "stateMutability": "payable",
      "type": "function"
    }
  ],
  "bytecode": "0x60806040523480156200001157600080fd5b5060405162000b6438038062000b64833981810160405281019062000037919062000179565b33600260006101000a81548173ffffffffffffffffffffffffffffffffffffffff021916908373ffffffffffffffffffffffffffffffffffffffff16021790555083600381905550826004819055504260058190555062093a80426200009e91906200023f565b60068190555062093a8083620000b591906200023f565b841015620000fa576040517f08c379a0000000000000000000000000000000000000000000000000000000008152600401620000f1906200020c565b60405180910390fd5b816000806101000a81548173ffffffffffffffffffffffffffffffffffffffff021916908373ffffffffffffffffffffffffffffffffffffffff160217905550806001819055505050505062000366565b6000815190506200015c8162000332565b92915050565b60008151905062000173816200034c565b92915050565b600080600080608085870312156200019057600080fd5b6000620001a08782880162000162565b9450506020620001b38782880162000162565b9350506040620001c6878288016200014b565b9250506060620001d98782880162000162565b91505092959194509250565b6000620001f46019836200022e565b9150620002018262000309565b602082019050919050565b600060208201905081810360008301526200022781620001e5565b9050919050565b600082825260208201905092915050565b60006200024c82620002d0565b91506200025983620002d0565b9250827fffffffffffffffffffffffffffffffffffffffffffffffffffffffffffffffff03821115620002915762000290620002da565b5b828201905092915050565b6000620002a982620002b0565b9050919050565b600073ffffffffffffffffffffffffffffffffffffffff82169050919050565b6000819050919050565b7f4e487b7100000000000000000000000000000000000000000000000000000000600052601160045260246000fd5b7f5374617274696e6720707269636520697320746f6f206c6f7700000000000000600082015250565b6200033d816200029c565b81146200034957600080fd5b50565b6200035781620002d0565b81146200036357600080fd5b50565b6107ee80620003766000396000f3fe6080604052600436106100865760003560e01c8063a6f2ae3a11610059578063a6f2ae3a14610137578063c6bc518214610141578063c74465651461016c578063d6fbf20214610197578063e6c0e6d5146101c257610086565b806308551a531461008b57806347ccca02146100b65780638622a689146100e157806398d5fdca1461010c575b600080fd5b34801561009757600080fd5b506100a06101ed565b6040516100ad9190610502565b60405180910390f35b3480156100c257600080fd5b506100cb610213565b6040516100d89190610554565b60405180910390f35b3480156100ed57600080fd5b506100f6610237565b60405161010391906105af565b60405180910390f35b34801561011857600080fd5b5061012161023d565b60405161012e91906105af565b60405180910390f35b61013f610277565b005b34801561014d57600080fd5b50610156610459565b60405161016391906105af565b60405180910390f35b34801561017857600080fd5b5061018161045f565b60405161018e91906105af565b60405180910390f35b3480156101a357600080fd5b506101ac610465565b6040516101b991906105af565b60405180910390f35b3480156101ce57600080fd5b506101d761046b565b6040516101e491906105af565b60405180910390f35b600260009054906101000a900473ffffffffffffffffffffffffffffffffffffffff1681565b60008054906101000a900473ffffffffffffffffffffffffffffffffffffffff1681565b60065481565b6000806005544261024e9190610635565b905060008160045461026091906105db565b9050806003546102709190610635565b9250505090565b60065442106102bb576040517f08c379a00000000000000000000000000000000000000000000000000000000081526004016102b29061056f565b60405180910390fd5b60006102c561023d565b90508034101561030a576040517f08c379a00000000000000000000000000000000000000000000000000000000081526004016103019061058f565b60405180910390fd5b60008054906101000a900473ffffffffffffffffffffffffffffffffffffffff1673ffffffffffffffffffffffffffffffffffffffff166323b872dd600260009054906101000a900473ffffffffffffffffffffffffffffffffffffffff16336001546040518463ffffffff1660e01b815260040161038b9392919061051d565b600060405180830381600087803b1580156103a557600080fd5b505af11580156103b9573d6000803e3d6000fd5b50505050600081346103cb9190610635565b9050600081111561041e573373ffffffffffffffffffffffffffffffffffffffff166108fc829081150290604051600060405180830381858888f1935050505015801561041c573d6000803e3d6000fd5b505b600260009054906101000a900473ffffffffffffffffffffffffffffffffffffffff1673ffffffffffffffffffffffffffffffffffffffff16ff5b60015481565b60055481565b60035481565b60045481565b61047a816106b7565b82525050565b6104898161067b565b82525050565b61049881610669565b82525050565b6104a7816106c9565b82525050565b60006104ba601a836105ca565b91506104c582610740565b602082019050919050565b60006104dd6036836105ca565b91506104e882610769565b604082019050919050565b6104fc816106ad565b82525050565b60006020820190506105176000830184610480565b92915050565b60006060820190506105326000830186610471565b61053f602083018561048f565b61054c60408301846104f3565b949350505050565b6000602082019050610569600083018461049e565b92915050565b60006020820190508181036000830152610588816104ad565b9050919050565b600060208201905081810360008301526105a8816104d0565b9050919050565b60006020820190506105c460008301846104f3565b92915050565b600082825260208201905092915050565b60006105e6826106ad565b91506105f1836106ad565b9250817fffffffffffffffffffffffffffffffffffffffffffffffffffffffffffffffff048311821515161561062a57610629610711565b5b828202905092915050565b6000610640826106ad565b915061064b836106ad565b92508282101561065e5761065d610711565b5b828203905092915050565b60006106748261068d565b9050919050565b60006106868261068d565b9050919050565b600073ffffffffffffffffffffffffffffffffffffffff82169050919050565b6000819050919050565b60006106c2826106ed565b9050919050565b60006106d4826106db565b9050919050565b60006106e68261068d565b9050919050565b60006106f8826106ff565b9050919050565b600061070a8261068d565b9050919050565b7f4e487b7100000000000000000000000000000000000000000000000000000000600052601160045260246000fd5b7f54686973206e66742062696464696e672068617320656e646564000000000000600082015250565b7f54686520616d6f756e74206f66204554482073656e64206973206c657373207460008201527f68656e20746865207072696365206f6620546f6b656e0000000000000000000060208201525056fea264697066735822122053f41db848603942c8f38e993d75f6467aad86e9c470e8364fe5a1a34b4495d064736f6c63430008040033",
  "immutableReferences": {},
  "source": "// SPDX-License-Identifier: MIT\r\npragma solidity ^0.8.4;\r\n\r\ninterface IERC721 {\r\n    function transferFrom(address _from, address _to, uint256 _nftId) external;\r\n}\r\n\r\ncontract NftAuction {\r\n    uint256 private constant DURATION = 7 days;\r\n\r\n    IERC721 public nft;\r\n    uint256 public nftId;\r\n\r\n    address payable public seller;\r\n    uint256 public startingPrice;\r\n    uint256 public discountRate;\r\n    uint256 public startAt;\r\n    uint256 public expiresAt;\r\n\r\n    constructor(\r\n        uint256 _startingPrice,\r\n        uint256 _discountRate,\r\n        address _nft,\r\n        uint256 _nftId\r\n    ) {\r\n        seller = payable(msg.sender);\r\n        startingPrice = _startingPrice;\r\n        discountRate = _discountRate;\r\n        startAt = block.timestamp;\r\n        expiresAt = block.timestamp + DURATION;\r\n\r\n        require(\r\n            _startingPrice >= _discountRate + DURATION,\r\n            \"Starting price is too low\"\r\n        );\r\n\r\n        nft = IERC721(_nft);\r\n        nftId = _nftId;\r\n    }\r\n\r\n    function getPrice() public view returns (uint256) {\r\n        uint256 timeElapsed = block.timestamp - startAt;\r\n        uint256 discount = discountRate * timeElapsed;\r\n\r\n        return startingPrice - discount;\r\n    }\r\n\r\n    function buy() external payable {\r\n        require(block.timestamp < expiresAt, \"This nft bidding has ended\");\r\n\r\n        uint256 price = getPrice();\r\n        require(\r\n            msg.value >= price,\r\n            \"The amount of ETH send is less then the price of Token\"\r\n        );\r\n\r\n        nft.transferFrom(seller, msg.sender, nftId);\r\n\r\n        uint256 refund = msg.value - price;\r\n\r\n        if (refund > 0) {\r\n            payable(msg.sender).transfer(refund);\r\n        }\r\n        selfdestruct(seller);\r\n    }\r\n}\r\n",
  "sourcePath": "C:\\Users\\soham\\Documents\\nft-test\\contracts\\NftAuction.sol",
  "compiler": {
    "name": "solc",
    "version": "0.8.4+commit.c7e474f2.Emscripten.clang"
  },
  "schemaVersion": "3.4.13",
  "updatedAt": "2023-04-28T10:09:56.613Z",
  "devdoc": {
    "kind": "dev",
    "methods": {},
    "version": 1
  },
  "userdoc": {
    "kind": "user",
    "methods": {},
    "version": 1
  }
}