{
  "contractName": "NFTMarketplace",
  "abi": [
    {
      "inputs": [],
      "stateMutability": "nonpayable",
      "type": "constructor"
    },
    {
      "anonymous": false,
      "inputs": [
        {
          "indexed": true,
          "internalType": "address",
          "name": "owner",
          "type": "address"
        },
        {
          "indexed": true,
          "internalType": "address",
          "name": "approved",
          "type": "address"
        },
        {
          "indexed": true,
          "internalType": "uint256",
          "name": "tokenId",
          "type": "uint256"
        }
      ],
      "name": "Approval",
      "type": "event"
    },
    {
      "anonymous": false,
      "inputs": [
        {
          "indexed": true,
          "internalType": "address",
          "name": "owner",
          "type": "address"
        },
        {
          "indexed": true,
          "internalType": "address",
          "name": "operator",
          "type": "address"
        },
        {
          "indexed": false,
          "internalType": "bool",
          "name": "approved",
          "type": "bool"
        }
      ],
      "name": "ApprovalForAll",
      "type": "event"
    },
    {
      "anonymous": false,
      "inputs": [
        {
          "indexed": true,
          "internalType": "uint256",
          "name": "tokenId",
          "type": "uint256"
        },
        {
          "indexed": false,
          "internalType": "address",
          "name": "seller",
          "type": "address"
        },
        {
          "indexed": false,
          "internalType": "address",
          "name": "owner",
          "type": "address"
        },
        {
          "indexed": false,
          "internalType": "uint256",
          "name": "price",
          "type": "uint256"
        },
        {
          "indexed": false,
          "internalType": "bool",
          "name": "sold",
          "type": "bool"
        }
      ],
      "name": "MarketItemCreated",
      "type": "event"
    },
    {
      "anonymous": false,
      "inputs": [
        {
          "indexed": true,
          "internalType": "address",
          "name": "from",
          "type": "address"
        },
        {
          "indexed": true,
          "internalType": "address",
          "name": "to",
          "type": "address"
        },
        {
          "indexed": true,
          "internalType": "uint256",
          "name": "tokenId",
          "type": "uint256"
        }
      ],
      "name": "Transfer",
      "type": "event"
    },
    {
      "inputs": [
        {
          "internalType": "address",
          "name": "to",
          "type": "address"
        },
        {
          "internalType": "uint256",
          "name": "tokenId",
          "type": "uint256"
        }
      ],
      "name": "approve",
      "outputs": [],
      "stateMutability": "nonpayable",
      "type": "function"
    },
    {
      "inputs": [
        {
          "internalType": "address",
          "name": "owner",
          "type": "address"
        }
      ],
      "name": "balanceOf",
      "outputs": [
        {
          "internalType": "uint256",
          "name": "",
          "type": "uint256"
        }
      ],
      "stateMutability": "view",
      "type": "function",
      "constant": true
    },
    {
      "inputs": [],
      "name": "contractName",
      "outputs": [
        {
          "internalType": "string",
          "name": "",
          "type": "string"
        }
      ],
      "stateMutability": "view",
      "type": "function",
      "constant": true
    },
    {
      "inputs": [
        {
          "internalType": "uint256",
          "name": "tokenId",
          "type": "uint256"
        }
      ],
      "name": "getApproved",
      "outputs": [
        {
          "internalType": "address",
          "name": "",
          "type": "address"
        }
      ],
      "stateMutability": "view",
      "type": "function",
      "constant": true
    },
    {
      "inputs": [
        {
          "internalType": "address",
          "name": "owner",
          "type": "address"
        },
        {
          "internalType": "address",
          "name": "operator",
          "type": "address"
        }
      ],
      "name": "isApprovedForAll",
      "outputs": [
        {
          "internalType": "bool",
          "name": "",
          "type": "bool"
        }
      ],
      "stateMutability": "view",
      "type": "function",
      "constant": true
    },
    {
      "inputs": [],
      "name": "name",
      "outputs": [
        {
          "internalType": "string",
          "name": "",
          "type": "string"
        }
      ],
      "stateMutability": "view",
      "type": "function",
      "constant": true
    },
    {
      "inputs": [
        {
          "internalType": "uint256",
          "name": "tokenId",
          "type": "uint256"
        }
      ],
      "name": "ownerOf",
      "outputs": [
        {
          "internalType": "address",
          "name": "",
          "type": "address"
        }
      ],
      "stateMutability": "view",
      "type": "function",
      "constant": true
    },
    {
      "inputs": [
        {
          "internalType": "address",
          "name": "from",
          "type": "address"
        },
        {
          "internalType": "address",
          "name": "to",
          "type": "address"
        },
        {
          "internalType": "uint256",
          "name": "tokenId",
          "type": "uint256"
        }
      ],
      "name": "safeTransferFrom",
      "outputs": [],
      "stateMutability": "nonpayable",
      "type": "function"
    },
    {
      "inputs": [
        {
          "internalType": "address",
          "name": "from",
          "type": "address"
        },
        {
          "internalType": "address",
          "name": "to",
          "type": "address"
        },
        {
          "internalType": "uint256",
          "name": "tokenId",
          "type": "uint256"
        },
        {
          "internalType": "bytes",
          "name": "data",
          "type": "bytes"
        }
      ],
      "name": "safeTransferFrom",
      "outputs": [],
      "stateMutability": "nonpayable",
      "type": "function"
    },
    {
      "inputs": [
        {
          "internalType": "address",
          "name": "operator",
          "type": "address"
        },
        {
          "internalType": "bool",
          "name": "approved",
          "type": "bool"
        }
      ],
      "name": "setApprovalForAll",
      "outputs": [],
      "stateMutability": "nonpayable",
      "type": "function"
    },
    {
      "inputs": [
        {
          "internalType": "bytes4",
          "name": "interfaceId",
          "type": "bytes4"
        }
      ],
      "name": "supportsInterface",
      "outputs": [
        {
          "internalType": "bool",
          "name": "",
          "type": "bool"
        }
      ],
      "stateMutability": "view",
      "type": "function",
      "constant": true
    },
    {
      "inputs": [],
      "name": "symbol",
      "outputs": [
        {
          "internalType": "string",
          "name": "",
          "type": "string"
        }
      ],
      "stateMutability": "view",
      "type": "function",
      "constant": true
    },
    {
      "inputs": [
        {
          "internalType": "uint256",
          "name": "tokenId",
          "type": "uint256"
        }
      ],
      "name": "tokenURI",
      "outputs": [
        {
          "internalType": "string",
          "name": "",
          "type": "string"
        }
      ],
      "stateMutability": "view",
      "type": "function",
      "constant": true
    },
    {
      "inputs": [
        {
          "internalType": "address",
          "name": "from",
          "type": "address"
        },
        {
          "internalType": "address",
          "name": "to",
          "type": "address"
        },
        {
          "internalType": "uint256",
          "name": "tokenId",
          "type": "uint256"
        }
      ],
      "name": "transferFrom",
      "outputs": [],
      "stateMutability": "nonpayable",
      "type": "function"
    },
    {
      "inputs": [
        {
          "internalType": "uint256",
          "name": "_listingPrice",
          "type": "uint256"
        }
      ],
      "name": "updateListingPrice",
      "outputs": [],
      "stateMutability": "payable",
      "type": "function",
      "payable": true
    },
    {
      "inputs": [],
      "name": "getListingPrice",
      "outputs": [
        {
          "internalType": "uint256",
          "name": "",
          "type": "uint256"
        }
      ],
      "stateMutability": "view",
      "type": "function",
      "constant": true
    },
    {
      "inputs": [
        {
          "internalType": "string",
          "name": "tokenURI",
          "type": "string"
        },
        {
          "internalType": "uint256",
          "name": "price",
          "type": "uint256"
        }
      ],
      "name": "createToken",
      "outputs": [
        {
          "internalType": "uint256",
          "name": "",
          "type": "uint256"
        }
      ],
      "stateMutability": "payable",
      "type": "function",
      "payable": true
    },
    {
      "inputs": [
        {
          "internalType": "uint256",
          "name": "tokenId",
          "type": "uint256"
        },
        {
          "internalType": "uint256",
          "name": "price",
          "type": "uint256"
        }
      ],
      "name": "resellToken",
      "outputs": [],
      "stateMutability": "payable",
      "type": "function",
      "payable": true
    },
    {
      "inputs": [
        {
          "internalType": "uint256",
          "name": "tokenId",
          "type": "uint256"
        }
      ],
      "name": "createMarketSale",
      "outputs": [],
      "stateMutability": "payable",
      "type": "function",
      "payable": true
    },
    {
      "inputs": [],
      "name": "fetchMarketItems",
      "outputs": [
        {
          "components": [
            {
              "internalType": "uint256",
              "name": "tokenId",
              "type": "uint256"
            },
            {
              "internalType": "address payable",
              "name": "seller",
              "type": "address"
            },
            {
              "internalType": "address payable",
              "name": "owner",
              "type": "address"
            },
            {
              "internalType": "uint256",
              "name": "price",
              "type": "uint256"
            },
            {
              "internalType": "bool",
              "name": "sold",
              "type": "bool"
            }
          ],
          "internalType": "struct NFTMarketplace.MarketItem[]",
          "name": "",
          "type": "tuple[]"
        }
      ],
      "stateMutability": "view",
      "type": "function",
      "constant": true
    },
    {
      "inputs": [],
      "name": "fetchMyNFTs",
      "outputs": [
        {
          "components": [
            {
              "internalType": "uint256",
              "name": "tokenId",
              "type": "uint256"
            },
            {
              "internalType": "address payable",
              "name": "seller",
              "type": "address"
            },
            {
              "internalType": "address payable",
              "name": "owner",
              "type": "address"
            },
            {
              "internalType": "uint256",
              "name": "price",
              "type": "uint256"
            },
            {
              "internalType": "bool",
              "name": "sold",
              "type": "bool"
            }
          ],
          "internalType": "struct NFTMarketplace.MarketItem[]",
          "name": "",
          "type": "tuple[]"
        }
      ],
      "stateMutability": "view",
      "type": "function",
      "constant": true
    },
    {
      "inputs": [],
      "name": "fetchItemsListed",
      "outputs": [
        {
          "components": [
            {
              "internalType": "uint256",
              "name": "tokenId",
              "type": "uint256"
            },
            {
              "internalType": "address payable",
              "name": "seller",
              "type": "address"
            },
            {
              "internalType": "address payable",
              "name": "owner",
              "type": "address"
            },
            {
              "internalType": "uint256",
              "name": "price",
              "type": "uint256"
            },
            {
              "internalType": "bool",
              "name": "sold",
              "type": "bool"
            }
          ],
          "internalType": "struct NFTMarketplace.MarketItem[]",
          "name": "",
          "type": "tuple[]"
        }
      ],
      "stateMutability": "view",
      "type": "function",
      "constant": true
    }
  ],
  "bytecode": "0x60806040526658d15e17628000600a553480156200001c57600080fd5b506040518060400160405280600e81526020017f4e46544d61726b6574706c6163650000000000000000000000000000000000008152506040518060400160405280600481526020017f4d455454000000000000000000000000000000000000000000000000000000008152508160009080519060200190620000a192919062000152565b508060019080519060200190620000ba92919062000152565b50505033600b60006101000a81548173ffffffffffffffffffffffffffffffffffffffff021916908373ffffffffffffffffffffffffffffffffffffffff1602179055506040518060400160405280600f81526020017f4e4654204d61726b6574706c6163650000000000000000000000000000000000815250600990805190602001906200014b92919062000152565b5062000267565b828054620001609062000202565b90600052602060002090601f016020900481019282620001845760008555620001d0565b82601f106200019f57805160ff1916838001178555620001d0565b82800160010185558215620001d0579182015b82811115620001cf578251825591602001919060010190620001b2565b5b509050620001df9190620001e3565b5090565b5b80821115620001fe576000816000905550600101620001e4565b5090565b600060028204905060018216806200021b57607f821691505b6020821081141562000232576200023162000238565b5b50919050565b7f4e487b7100000000000000000000000000000000000000000000000000000000600052602260045260246000fd5b6143f680620002776000396000f3fe6080604052600436106101355760003560e01c806370a08231116100ab578063ae677aa31161006f578063ae677aa31461042f578063b88d4fde1461044b578063be9af53614610474578063c87b56dd14610490578063e219fc75146104cd578063e985e9c5146104e957610135565b806370a082311461034357806372b3b6201461038057806375d0c0dc146103b057806395d89b41146103db578063a22cb4651461040657610135565b806312e85585116100fd57806312e8558514610233578063202e37401461025e57806323b872dd1461028957806342842e0e146102b257806345f8fa80146102db5780636352211e1461030657610135565b806301ffc9a71461013a57806306fdde0314610177578063081812fc146101a2578063095ea7b3146101df5780630f08efe014610208575b600080fd5b34801561014657600080fd5b50610161600480360381019061015c91906131a3565b610526565b60405161016e9190613814565b60405180910390f35b34801561018357600080fd5b5061018c610608565b604051610199919061382f565b60405180910390f35b3480156101ae57600080fd5b506101c960048036038101906101c49190613249565b61069a565b6040516101d69190613746565b60405180910390f35b3480156101eb57600080fd5b5061020660048036038101906102019190613167565b6106e0565b005b34801561021457600080fd5b5061021d6107f8565b60405161022a91906137f2565b60405180910390f35b34801561023f57600080fd5b50610248610aad565b6040516102559190613ab1565b60405180910390f35b34801561026a57600080fd5b50610273610ab7565b60405161028091906137f2565b60405180910390f35b34801561029557600080fd5b506102b060048036038101906102ab9190613061565b610df1565b005b3480156102be57600080fd5b506102d960048036038101906102d49190613061565b610e51565b005b3480156102e757600080fd5b506102f0610e71565b6040516102fd91906137f2565b60405180910390f35b34801561031257600080fd5b5061032d60048036038101906103289190613249565b6111ab565b60405161033a9190613746565b60405180910390f35b34801561034f57600080fd5b5061036a60048036038101906103659190612ffc565b611232565b6040516103779190613ab1565b60405180910390f35b61039a600480360381019061039591906131f5565b6112ea565b6040516103a79190613ab1565b60405180910390f35b3480156103bc57600080fd5b506103c561132c565b6040516103d2919061382f565b60405180910390f35b3480156103e757600080fd5b506103f06113ba565b6040516103fd919061382f565b60405180910390f35b34801561041257600080fd5b5061042d6004803603810190610428919061312b565b61144c565b005b61044960048036038101906104449190613249565b611462565b005b34801561045757600080fd5b50610472600480360381019061046d91906130b0565b61158c565b005b61048e60048036038101906104899190613249565b6115ee565b005b34801561049c57600080fd5b506104b760048036038101906104b29190613249565b611826565b6040516104c4919061382f565b60405180910390f35b6104e760048036038101906104e29190613272565b611939565b005b3480156104f557600080fd5b50610510600480360381019061050b9190613025565b611b2e565b60405161051d9190613814565b60405180910390f35b60007f80ac58cd000000000000000000000000000000000000000000000000000000007bffffffffffffffffffffffffffffffffffffffffffffffffffffffff1916827bffffffffffffffffffffffffffffffffffffffffffffffffffffffff191614806105f157507f5b5e139f000000000000000000000000000000000000000000000000000000007bffffffffffffffffffffffffffffffffffffffffffffffffffffffff1916827bffffffffffffffffffffffffffffffffffffffffffffffffffffffff1916145b80610601575061060082611bc2565b5b9050919050565b60606000805461061790613d21565b80601f016020809104026020016040519081016040528092919081815260200182805461064390613d21565b80156106905780601f1061066557610100808354040283529160200191610690565b820191906000526020600020905b81548152906001019060200180831161067357829003601f168201915b5050505050905090565b60006106a582611c2c565b6004600083815260200190815260200160002060009054906101000a900473ffffffffffffffffffffffffffffffffffffffff169050919050565b60006106eb826111ab565b90508073ffffffffffffffffffffffffffffffffffffffff168373ffffffffffffffffffffffffffffffffffffffff16141561075c576040517f08c379a000000000000000000000000000000000000000000000000000000000815260040161075390613a11565b60405180910390fd5b8073ffffffffffffffffffffffffffffffffffffffff1661077b611c77565b73ffffffffffffffffffffffffffffffffffffffff1614806107aa57506107a9816107a4611c77565b611b2e565b5b6107e9576040517f08c379a00000000000000000000000000000000000000000000000000000000081526004016107e090613a51565b60405180910390fd5b6107f38383611c7f565b505050565b606060006108066007611d38565b905060006108146008611d38565b61081e6007611d38565b6108289190613c25565b90506000808267ffffffffffffffff81111561086d577f4e487b7100000000000000000000000000000000000000000000000000000000600052604160045260246000fd5b6040519080825280602002602001820160405280156108a657816020015b610893612dc3565b81526020019060019003908161088b5790505b50905060005b84811015610aa2573073ffffffffffffffffffffffffffffffffffffffff16600c60006001846108dc9190613bcf565b815260200190815260200160002060020160009054906101000a900473ffffffffffffffffffffffffffffffffffffffff1673ffffffffffffffffffffffffffffffffffffffff161415610a8f5760006001826109399190613bcf565b90506000600c60008381526020019081526020016000209050806040518060a0016040529081600082015481526020016001820160009054906101000a900473ffffffffffffffffffffffffffffffffffffffff1673ffffffffffffffffffffffffffffffffffffffff1673ffffffffffffffffffffffffffffffffffffffff1681526020016002820160009054906101000a900473ffffffffffffffffffffffffffffffffffffffff1673ffffffffffffffffffffffffffffffffffffffff1673ffffffffffffffffffffffffffffffffffffffff168152602001600382015481526020016004820160009054906101000a900460ff161515151581525050848681518110610a72577f4e487b7100000000000000000000000000000000000000000000000000000000600052603260045260246000fd5b6020026020010181905250600185610a8a9190613bcf565b945050505b8080610a9a90613d84565b9150506108ac565b508094505050505090565b6000600a54905090565b60606000610ac56007611d38565b905060008060005b83811015610b6e573373ffffffffffffffffffffffffffffffffffffffff16600c6000600184610afd9190613bcf565b815260200190815260200160002060020160009054906101000a900473ffffffffffffffffffffffffffffffffffffffff1673ffffffffffffffffffffffffffffffffffffffff161415610b5b57600183610b589190613bcf565b92505b8080610b6690613d84565b915050610acd565b5060008267ffffffffffffffff811115610bb1577f4e487b7100000000000000000000000000000000000000000000000000000000600052604160045260246000fd5b604051908082528060200260200182016040528015610bea57816020015b610bd7612dc3565b815260200190600190039081610bcf5790505b50905060005b84811015610de6573373ffffffffffffffffffffffffffffffffffffffff16600c6000600184610c209190613bcf565b815260200190815260200160002060020160009054906101000a900473ffffffffffffffffffffffffffffffffffffffff1673ffffffffffffffffffffffffffffffffffffffff161415610dd3576000600182610c7d9190613bcf565b90506000600c60008381526020019081526020016000209050806040518060a0016040529081600082015481526020016001820160009054906101000a900473ffffffffffffffffffffffffffffffffffffffff1673ffffffffffffffffffffffffffffffffffffffff1673ffffffffffffffffffffffffffffffffffffffff1681526020016002820160009054906101000a900473ffffffffffffffffffffffffffffffffffffffff1673ffffffffffffffffffffffffffffffffffffffff1673ffffffffffffffffffffffffffffffffffffffff168152602001600382015481526020016004820160009054906101000a900460ff161515151581525050848681518110610db6577f4e487b7100000000000000000000000000000000000000000000000000000000600052603260045260246000fd5b6020026020010181905250600185610dce9190613bcf565b945050505b8080610dde90613d84565b915050610bf0565b508094505050505090565b610e02610dfc611c77565b82611d46565b610e41576040517f08c379a0000000000000000000000000000000000000000000000000000000008152600401610e3890613851565b60405180910390fd5b610e4c838383611ddb565b505050565b610e6c8383836040518060200160405280600081525061158c565b505050565b60606000610e7f6007611d38565b905060008060005b83811015610f28573373ffffffffffffffffffffffffffffffffffffffff16600c6000600184610eb79190613bcf565b815260200190815260200160002060010160009054906101000a900473ffffffffffffffffffffffffffffffffffffffff1673ffffffffffffffffffffffffffffffffffffffff161415610f1557600183610f129190613bcf565b92505b8080610f2090613d84565b915050610e87565b5060008267ffffffffffffffff811115610f6b577f4e487b7100000000000000000000000000000000000000000000000000000000600052604160045260246000fd5b604051908082528060200260200182016040528015610fa457816020015b610f91612dc3565b815260200190600190039081610f895790505b50905060005b848110156111a0573373ffffffffffffffffffffffffffffffffffffffff16600c6000600184610fda9190613bcf565b815260200190815260200160002060010160009054906101000a900473ffffffffffffffffffffffffffffffffffffffff1673ffffffffffffffffffffffffffffffffffffffff16141561118d5760006001826110379190613bcf565b90506000600c60008381526020019081526020016000209050806040518060a0016040529081600082015481526020016001820160009054906101000a900473ffffffffffffffffffffffffffffffffffffffff1673ffffffffffffffffffffffffffffffffffffffff1673ffffffffffffffffffffffffffffffffffffffff1681526020016002820160009054906101000a900473ffffffffffffffffffffffffffffffffffffffff1673ffffffffffffffffffffffffffffffffffffffff1673ffffffffffffffffffffffffffffffffffffffff168152602001600382015481526020016004820160009054906101000a900460ff161515151581525050848681518110611170577f4e487b7100000000000000000000000000000000000000000000000000000000600052603260045260246000fd5b60200260200101819052506001856111889190613bcf565b945050505b808061119890613d84565b915050610faa565b508094505050505090565b6000806111b7836120d5565b9050600073ffffffffffffffffffffffffffffffffffffffff168173ffffffffffffffffffffffffffffffffffffffff161415611229576040517f08c379a0000000000000000000000000000000000000000000000000000000008152600401611220906139f1565b60405180910390fd5b80915050919050565b60008073ffffffffffffffffffffffffffffffffffffffff168273ffffffffffffffffffffffffffffffffffffffff1614156112a3576040517f08c379a000000000000000000000000000000000000000000000000000000000815260040161129a90613931565b60405180910390fd5b600360008373ffffffffffffffffffffffffffffffffffffffff1673ffffffffffffffffffffffffffffffffffffffff168152602001908152602001600020549050919050565b60006112f66007612112565b60006113026007611d38565b905061130e3382612128565b6113188185612346565b61132281846123ba565b8091505092915050565b6009805461133990613d21565b80601f016020809104026020016040519081016040528092919081815260200182805461136590613d21565b80156113b25780601f10611387576101008083540402835291602001916113b2565b820191906000526020600020905b81548152906001019060200180831161139557829003601f168201915b505050505081565b6060600180546113c990613d21565b80601f01602080910402602001604051908101604052809291908181526020018280546113f590613d21565b80156114425780601f1061141757610100808354040283529160200191611442565b820191906000526020600020905b81548152906001019060200180831161142557829003601f168201915b5050505050905090565b61145e611457611c77565b83836125bd565b5050565b600b60009054906101000a900473ffffffffffffffffffffffffffffffffffffffff1673ffffffffffffffffffffffffffffffffffffffff163373ffffffffffffffffffffffffffffffffffffffff16146114f2576040517f08c379a00000000000000000000000000000000000000000000000000000000081526004016114e9906139d1565b60405180910390fd5b3373ffffffffffffffffffffffffffffffffffffffff16600b60009054906101000a900473ffffffffffffffffffffffffffffffffffffffff1673ffffffffffffffffffffffffffffffffffffffff1614611582576040517f08c379a000000000000000000000000000000000000000000000000000000000815260040161157990613a71565b60405180910390fd5b80600a8190555050565b61159d611597611c77565b83611d46565b6115dc576040517f08c379a00000000000000000000000000000000000000000000000000000000081526004016115d390613851565b60405180910390fd5b6115e88484848461272a565b50505050565b6000600c600083815260200190815260200160002060030154905080341461164b576040517f08c379a000000000000000000000000000000000000000000000000000000000815260040161164290613971565b60405180910390fd5b33600c600084815260200190815260200160002060020160006101000a81548173ffffffffffffffffffffffffffffffffffffffff021916908373ffffffffffffffffffffffffffffffffffffffff1602179055506001600c600084815260200190815260200160002060040160006101000a81548160ff0219169083151502179055506000600c600084815260200190815260200160002060010160006101000a81548173ffffffffffffffffffffffffffffffffffffffff021916908373ffffffffffffffffffffffffffffffffffffffff16021790555061172f6008612112565b61173a303384611ddb565b600b60009054906101000a900473ffffffffffffffffffffffffffffffffffffffff1673ffffffffffffffffffffffffffffffffffffffff166108fc600a549081150290604051600060405180830381858888f193505050501580156117a4573d6000803e3d6000fd5b50600c600083815260200190815260200160002060010160009054906101000a900473ffffffffffffffffffffffffffffffffffffffff1673ffffffffffffffffffffffffffffffffffffffff166108fc349081150290604051600060405180830381858888f19350505050158015611821573d6000803e3d6000fd5b505050565b606061183182611c2c565b600060066000848152602001908152602001600020805461185190613d21565b80601f016020809104026020016040519081016040528092919081815260200182805461187d90613d21565b80156118ca5780601f1061189f576101008083540402835291602001916118ca565b820191906000526020600020905b8154815290600101906020018083116118ad57829003601f168201915b5050505050905060006118db612786565b90506000815114156118f1578192505050611934565b60008251111561192657808260405160200161190e929190613722565b60405160208183030381529060405292505050611934565b61192f8461279d565b925050505b919050565b3373ffffffffffffffffffffffffffffffffffffffff16600c600084815260200190815260200160002060020160009054906101000a900473ffffffffffffffffffffffffffffffffffffffff1673ffffffffffffffffffffffffffffffffffffffff16146119dd576040517f08c379a00000000000000000000000000000000000000000000000000000000081526004016119d4906139b1565b60405180910390fd5b600a543414611a21576040517f08c379a0000000000000000000000000000000000000000000000000000000008152600401611a1890613a31565b60405180910390fd5b6000600c600084815260200190815260200160002060040160006101000a81548160ff02191690831515021790555080600c60008481526020019081526020016000206003018190555033600c600084815260200190815260200160002060010160006101000a81548173ffffffffffffffffffffffffffffffffffffffff021916908373ffffffffffffffffffffffffffffffffffffffff16021790555030600c600084815260200190815260200160002060020160006101000a81548173ffffffffffffffffffffffffffffffffffffffff021916908373ffffffffffffffffffffffffffffffffffffffff160217905550611b1f6008612805565b611b2a333084611ddb565b5050565b6000600560008473ffffffffffffffffffffffffffffffffffffffff1673ffffffffffffffffffffffffffffffffffffffff16815260200190815260200160002060008373ffffffffffffffffffffffffffffffffffffffff1673ffffffffffffffffffffffffffffffffffffffff16815260200190815260200160002060009054906101000a900460ff16905092915050565b60007f01ffc9a7000000000000000000000000000000000000000000000000000000007bffffffffffffffffffffffffffffffffffffffffffffffffffffffff1916827bffffffffffffffffffffffffffffffffffffffffffffffffffffffff1916149050919050565b611c3581612861565b611c74576040517f08c379a0000000000000000000000000000000000000000000000000000000008152600401611c6b906139f1565b60405180910390fd5b50565b600033905090565b816004600083815260200190815260200160002060006101000a81548173ffffffffffffffffffffffffffffffffffffffff021916908373ffffffffffffffffffffffffffffffffffffffff160217905550808273ffffffffffffffffffffffffffffffffffffffff16611cf2836111ab565b73ffffffffffffffffffffffffffffffffffffffff167f8c5be1e5ebec7d5bd14f71427d1e84f3dd0314c0f7b2291e5b200ac8c7c3b92560405160405180910390a45050565b600081600001549050919050565b600080611d52836111ab565b90508073ffffffffffffffffffffffffffffffffffffffff168473ffffffffffffffffffffffffffffffffffffffff161480611d945750611d938185611b2e565b5b80611dd257508373ffffffffffffffffffffffffffffffffffffffff16611dba8461069a565b73ffffffffffffffffffffffffffffffffffffffff16145b91505092915050565b8273ffffffffffffffffffffffffffffffffffffffff16611dfb826111ab565b73ffffffffffffffffffffffffffffffffffffffff1614611e51576040517f08c379a0000000000000000000000000000000000000000000000000000000008152600401611e48906138b1565b60405180910390fd5b600073ffffffffffffffffffffffffffffffffffffffff168273ffffffffffffffffffffffffffffffffffffffff161415611ec1576040517f08c379a0000000000000000000000000000000000000000000000000000000008152600401611eb8906138f1565b60405180910390fd5b611ece83838360016128a2565b8273ffffffffffffffffffffffffffffffffffffffff16611eee826111ab565b73ffffffffffffffffffffffffffffffffffffffff1614611f44576040517f08c379a0000000000000000000000000000000000000000000000000000000008152600401611f3b906138b1565b60405180910390fd5b6004600082815260200190815260200160002060006101000a81549073ffffffffffffffffffffffffffffffffffffffff02191690556001600360008573ffffffffffffffffffffffffffffffffffffffff1673ffffffffffffffffffffffffffffffffffffffff168152602001908152602001600020600082825403925050819055506001600360008473ffffffffffffffffffffffffffffffffffffffff1673ffffffffffffffffffffffffffffffffffffffff16815260200190815260200160002060008282540192505081905550816002600083815260200190815260200160002060006101000a81548173ffffffffffffffffffffffffffffffffffffffff021916908373ffffffffffffffffffffffffffffffffffffffff160217905550808273ffffffffffffffffffffffffffffffffffffffff168473ffffffffffffffffffffffffffffffffffffffff167fddf252ad1be2c89b69c2b068fc378daa952ba7f163c4a11628f55a4df523b3ef60405160405180910390a46120d083838360016128a8565b505050565b60006002600083815260200190815260200160002060009054906101000a900473ffffffffffffffffffffffffffffffffffffffff169050919050565b6001816000016000828254019250508190555050565b600073ffffffffffffffffffffffffffffffffffffffff168273ffffffffffffffffffffffffffffffffffffffff161415612198576040517f08c379a000000000000000000000000000000000000000000000000000000000815260040161218f90613991565b60405180910390fd5b6121a181612861565b156121e1576040517f08c379a00000000000000000000000000000000000000000000000000000000081526004016121d8906138d1565b60405180910390fd5b6121ef6000838360016128a2565b6121f881612861565b15612238576040517f08c379a000000000000000000000000000000000000000000000000000000000815260040161222f906138d1565b60405180910390fd5b6001600360008473ffffffffffffffffffffffffffffffffffffffff1673ffffffffffffffffffffffffffffffffffffffff16815260200190815260200160002060008282540192505081905550816002600083815260200190815260200160002060006101000a81548173ffffffffffffffffffffffffffffffffffffffff021916908373ffffffffffffffffffffffffffffffffffffffff160217905550808273ffffffffffffffffffffffffffffffffffffffff16600073ffffffffffffffffffffffffffffffffffffffff167fddf252ad1be2c89b69c2b068fc378daa952ba7f163c4a11628f55a4df523b3ef60405160405180910390a46123426000838360016128a8565b5050565b61234f82612861565b61238e576040517f08c379a000000000000000000000000000000000000000000000000000000000815260040161238590613951565b60405180910390fd5b806006600084815260200190815260200160002090805190602001906123b5929190612e20565b505050565b600081116123fd576040517f08c379a00000000000000000000000000000000000000000000000000000000081526004016123f490613a91565b60405180910390fd5b600a543414612441576040517f08c379a000000000000000000000000000000000000000000000000000000000815260040161243890613a31565b60405180910390fd5b6040518060a001604052808381526020013373ffffffffffffffffffffffffffffffffffffffff1681526020013073ffffffffffffffffffffffffffffffffffffffff16815260200182815260200160001515815250600c60008481526020019081526020016000206000820151816000015560208201518160010160006101000a81548173ffffffffffffffffffffffffffffffffffffffff021916908373ffffffffffffffffffffffffffffffffffffffff16021790555060408201518160020160006101000a81548173ffffffffffffffffffffffffffffffffffffffff021916908373ffffffffffffffffffffffffffffffffffffffff1602179055506060820151816003015560808201518160040160006101000a81548160ff02191690831515021790555090505061257a333084611ddb565b817fb640004f1d14576d0c209e240cad0410e0d8c0c33a09375861fbadae2588a98d33308460006040516125b19493929190613761565b60405180910390a25050565b8173ffffffffffffffffffffffffffffffffffffffff168373ffffffffffffffffffffffffffffffffffffffff16141561262c576040517f08c379a000000000000000000000000000000000000000000000000000000000815260040161262390613911565b60405180910390fd5b80600560008573ffffffffffffffffffffffffffffffffffffffff1673ffffffffffffffffffffffffffffffffffffffff16815260200190815260200160002060008473ffffffffffffffffffffffffffffffffffffffff1673ffffffffffffffffffffffffffffffffffffffff16815260200190815260200160002060006101000a81548160ff0219169083151502179055508173ffffffffffffffffffffffffffffffffffffffff168373ffffffffffffffffffffffffffffffffffffffff167f17307eab39ab6107e8899845ad3d59bd9653f200f220920489ca2b5937696c318360405161271d9190613814565b60405180910390a3505050565b612735848484611ddb565b612741848484846128ae565b612780576040517f08c379a000000000000000000000000000000000000000000000000000000000815260040161277790613891565b60405180910390fd5b50505050565b606060405180602001604052806000815250905090565b60606127a882611c2c565b60006127b2612786565b905060008151116127d257604051806020016040528060008152506127fd565b806127dc84612a45565b6040516020016127ed929190613722565b6040516020818303038152906040525b915050919050565b60008160000154905060008111612851576040517f08c379a000000000000000000000000000000000000000000000000000000000815260040161284890613871565b60405180910390fd5b6001810382600001819055505050565b60008073ffffffffffffffffffffffffffffffffffffffff16612883836120d5565b73ffffffffffffffffffffffffffffffffffffffff1614159050919050565b50505050565b50505050565b60006128cf8473ffffffffffffffffffffffffffffffffffffffff16612b69565b15612a38578373ffffffffffffffffffffffffffffffffffffffff1663150b7a026128f8611c77565b8786866040518563ffffffff1660e01b815260040161291a94939291906137a6565b602060405180830381600087803b15801561293457600080fd5b505af192505050801561296557506040513d601f19601f8201168201806040525081019061296291906131cc565b60015b6129e8573d8060008114612995576040519150601f19603f3d011682016040523d82523d6000602084013e61299a565b606091505b506000815114156129e0576040517f08c379a00000000000000000000000000000000000000000000000000000000081526004016129d790613891565b60405180910390fd5b805181602001fd5b63150b7a0260e01b7bffffffffffffffffffffffffffffffffffffffffffffffffffffffff1916817bffffffffffffffffffffffffffffffffffffffffffffffffffffffff191614915050612a3d565b600190505b949350505050565b606060006001612a5484612b8c565b01905060008167ffffffffffffffff811115612a99577f4e487b7100000000000000000000000000000000000000000000000000000000600052604160045260246000fd5b6040519080825280601f01601f191660200182016040528015612acb5781602001600182028036833780820191505090505b509050600082602001820190505b600115612b5e578080600190039150507f3031323334353637383961626364656600000000000000000000000000000000600a86061a8153600a8581612b48577f4e487b7100000000000000000000000000000000000000000000000000000000600052601260045260246000fd5b0494506000851415612b5957612b5e565b612ad9565b819350505050919050565b6000808273ffffffffffffffffffffffffffffffffffffffff163b119050919050565b600080600090507a184f03e93ff9f4daa797ed6e38ed64bf6a1f0100000000000000008310612c10577a184f03e93ff9f4daa797ed6e38ed64bf6a1f0100000000000000008381612c06577f4e487b7100000000000000000000000000000000000000000000000000000000600052601260045260246000fd5b0492506040810190505b6d04ee2d6d415b85acef81000000008310612c73576d04ee2d6d415b85acef81000000008381612c69577f4e487b7100000000000000000000000000000000000000000000000000000000600052601260045260246000fd5b0492506020810190505b662386f26fc100008310612cc857662386f26fc100008381612cbe577f4e487b7100000000000000000000000000000000000000000000000000000000600052601260045260246000fd5b0492506010810190505b6305f5e1008310612d17576305f5e1008381612d0d577f4e487b7100000000000000000000000000000000000000000000000000000000600052601260045260246000fd5b0492506008810190505b6127108310612d62576127108381612d58577f4e487b7100000000000000000000000000000000000000000000000000000000600052601260045260246000fd5b0492506004810190505b60648310612dab5760648381612da1577f4e487b7100000000000000000000000000000000000000000000000000000000600052601260045260246000fd5b0492506002810190505b600a8310612dba576001810190505b80915050919050565b6040518060a0016040528060008152602001600073ffffffffffffffffffffffffffffffffffffffff168152602001600073ffffffffffffffffffffffffffffffffffffffff168152602001600081526020016000151581525090565b828054612e2c90613d21565b90600052602060002090601f016020900481019282612e4e5760008555612e95565b82601f10612e6757805160ff1916838001178555612e95565b82800160010185558215612e95579182015b82811115612e94578251825591602001919060010190612e79565b5b509050612ea29190612ea6565b5090565b5b80821115612ebf576000816000905550600101612ea7565b5090565b6000612ed6612ed184613af1565b613acc565b905082815260208101848484011115612eee57600080fd5b612ef9848285613cdf565b509392505050565b6000612f14612f0f84613b22565b613acc565b905082815260208101848484011115612f2c57600080fd5b612f37848285613cdf565b509392505050565b600081359050612f4e81614364565b92915050565b600081359050612f638161437b565b92915050565b600081359050612f7881614392565b92915050565b600081519050612f8d81614392565b92915050565b600082601f830112612fa457600080fd5b8135612fb4848260208601612ec3565b91505092915050565b600082601f830112612fce57600080fd5b8135612fde848260208601612f01565b91505092915050565b600081359050612ff6816143a9565b92915050565b60006020828403121561300e57600080fd5b600061301c84828501612f3f565b91505092915050565b6000806040838503121561303857600080fd5b600061304685828601612f3f565b925050602061305785828601612f3f565b9150509250929050565b60008060006060848603121561307657600080fd5b600061308486828701612f3f565b935050602061309586828701612f3f565b92505060406130a686828701612fe7565b9150509250925092565b600080600080608085870312156130c657600080fd5b60006130d487828801612f3f565b94505060206130e587828801612f3f565b93505060406130f687828801612fe7565b925050606085013567ffffffffffffffff81111561311357600080fd5b61311f87828801612f93565b91505092959194509250565b6000806040838503121561313e57600080fd5b600061314c85828601612f3f565b925050602061315d85828601612f54565b9150509250929050565b6000806040838503121561317a57600080fd5b600061318885828601612f3f565b925050602061319985828601612fe7565b9150509250929050565b6000602082840312156131b557600080fd5b60006131c384828501612f69565b91505092915050565b6000602082840312156131de57600080fd5b60006131ec84828501612f7e565b91505092915050565b6000806040838503121561320857600080fd5b600083013567ffffffffffffffff81111561322257600080fd5b61322e85828601612fbd565b925050602061323f85828601612fe7565b9150509250929050565b60006020828403121561325b57600080fd5b600061326984828501612fe7565b91505092915050565b6000806040838503121561328557600080fd5b600061329385828601612fe7565b92505060206132a485828601612fe7565b9150509250929050565b60006132ba838361369c565b60a08301905092915050565b6132cf81613c6b565b82525050565b6132de81613c59565b82525050565b60006132ef82613b63565b6132f98185613b91565b935061330483613b53565b8060005b8381101561333557815161331c88826132ae565b975061332783613b84565b925050600181019050613308565b5085935050505092915050565b61334b81613c7d565b82525050565b61335a81613c7d565b82525050565b600061336b82613b6e565b6133758185613ba2565b9350613385818560208601613cee565b61338e81613e5a565b840191505092915050565b60006133a482613b79565b6133ae8185613bb3565b93506133be818560208601613cee565b6133c781613e5a565b840191505092915050565b60006133dd82613b79565b6133e78185613bc4565b93506133f7818560208601613cee565b80840191505092915050565b6000613410602d83613bb3565b915061341b82613e6b565b604082019050919050565b6000613433601b83613bb3565b915061343e82613eba565b602082019050919050565b6000613456603283613bb3565b915061346182613ee3565b604082019050919050565b6000613479602583613bb3565b915061348482613f32565b604082019050919050565b600061349c601c83613bb3565b91506134a782613f81565b602082019050919050565b60006134bf602483613bb3565b91506134ca82613faa565b604082019050919050565b60006134e2601983613bb3565b91506134ed82613ff9565b602082019050919050565b6000613505602983613bb3565b915061351082614022565b604082019050919050565b6000613528602e83613bb3565b915061353382614071565b604082019050919050565b600061354b604083613bb3565b9150613556826140c0565b604082019050919050565b600061356e602083613bb3565b91506135798261410f565b602082019050919050565b6000613591602a83613bb3565b915061359c82614138565b604082019050919050565b60006135b4603a83613bb3565b91506135bf82614187565b604082019050919050565b60006135d7601883613bb3565b91506135e2826141d6565b602082019050919050565b60006135fa602183613bb3565b9150613605826141ff565b604082019050919050565b600061361d602483613bb3565b91506136288261424e565b604082019050919050565b6000613640603d83613bb3565b915061364b8261429d565b604082019050919050565b6000613663603083613bb3565b915061366e826142ec565b604082019050919050565b6000613686601c83613bb3565b91506136918261433b565b602082019050919050565b60a0820160008201516136b26000850182613704565b5060208201516136c560208501826132c6565b5060408201516136d860408501826132c6565b5060608201516136eb6060850182613704565b5060808201516136fe6080850182613342565b50505050565b61370d81613cd5565b82525050565b61371c81613cd5565b82525050565b600061372e82856133d2565b915061373a82846133d2565b91508190509392505050565b600060208201905061375b60008301846132d5565b92915050565b600060808201905061377660008301876132d5565b61378360208301866132d5565b6137906040830185613713565b61379d6060830184613351565b95945050505050565b60006080820190506137bb60008301876132d5565b6137c860208301866132d5565b6137d56040830185613713565b81810360608301526137e78184613360565b905095945050505050565b6000602082019050818103600083015261380c81846132e4565b905092915050565b60006020820190506138296000830184613351565b92915050565b600060208201905081810360008301526138498184613399565b905092915050565b6000602082019050818103600083015261386a81613403565b9050919050565b6000602082019050818103600083015261388a81613426565b9050919050565b600060208201905081810360008301526138aa81613449565b9050919050565b600060208201905081810360008301526138ca8161346c565b9050919050565b600060208201905081810360008301526138ea8161348f565b9050919050565b6000602082019050818103600083015261390a816134b2565b9050919050565b6000602082019050818103600083015261392a816134d5565b9050919050565b6000602082019050818103600083015261394a816134f8565b9050919050565b6000602082019050818103600083015261396a8161351b565b9050919050565b6000602082019050818103600083015261398a8161353e565b9050919050565b600060208201905081810360008301526139aa81613561565b9050919050565b600060208201905081810360008301526139ca81613584565b9050919050565b600060208201905081810360008301526139ea816135a7565b9050919050565b60006020820190508181036000830152613a0a816135ca565b9050919050565b60006020820190508181036000830152613a2a816135ed565b9050919050565b60006020820190508181036000830152613a4a81613610565b9050919050565b60006020820190508181036000830152613a6a81613633565b9050919050565b60006020820190508181036000830152613a8a81613656565b9050919050565b60006020820190508181036000830152613aaa81613679565b9050919050565b6000602082019050613ac66000830184613713565b92915050565b6000613ad6613ae7565b9050613ae28282613d53565b919050565b6000604051905090565b600067ffffffffffffffff821115613b0c57613b0b613e2b565b5b613b1582613e5a565b9050602081019050919050565b600067ffffffffffffffff821115613b3d57613b3c613e2b565b5b613b4682613e5a565b9050602081019050919050565b6000819050602082019050919050565b600081519050919050565b600081519050919050565b600081519050919050565b6000602082019050919050565b600082825260208201905092915050565b600082825260208201905092915050565b600082825260208201905092915050565b600081905092915050565b6000613bda82613cd5565b9150613be583613cd5565b9250827fffffffffffffffffffffffffffffffffffffffffffffffffffffffffffffffff03821115613c1a57613c19613dcd565b5b828201905092915050565b6000613c3082613cd5565b9150613c3b83613cd5565b925082821015613c4e57613c4d613dcd565b5b828203905092915050565b6000613c6482613cb5565b9050919050565b6000613c7682613cb5565b9050919050565b60008115159050919050565b60007fffffffff0000000000000000000000000000000000000000000000000000000082169050919050565b600073ffffffffffffffffffffffffffffffffffffffff82169050919050565b6000819050919050565b82818337600083830152505050565b60005b83811015613d0c578082015181840152602081019050613cf1565b83811115613d1b576000848401525b50505050565b60006002820490506001821680613d3957607f821691505b60208210811415613d4d57613d4c613dfc565b5b50919050565b613d5c82613e5a565b810181811067ffffffffffffffff82111715613d7b57613d7a613e2b565b5b80604052505050565b6000613d8f82613cd5565b91507fffffffffffffffffffffffffffffffffffffffffffffffffffffffffffffffff821415613dc257613dc1613dcd565b5b600182019050919050565b7f4e487b7100000000000000000000000000000000000000000000000000000000600052601160045260246000fd5b7f4e487b7100000000000000000000000000000000000000000000000000000000600052602260045260246000fd5b7f4e487b7100000000000000000000000000000000000000000000000000000000600052604160045260246000fd5b6000601f19601f8301169050919050565b7f4552433732313a2063616c6c6572206973206e6f7420746f6b656e206f776e6560008201527f72206f7220617070726f76656400000000000000000000000000000000000000602082015250565b7f436f756e7465723a2064656372656d656e74206f766572666c6f770000000000600082015250565b7f4552433732313a207472616e7366657220746f206e6f6e20455243373231526560008201527f63656976657220696d706c656d656e7465720000000000000000000000000000602082015250565b7f4552433732313a207472616e736665722066726f6d20696e636f72726563742060008201527f6f776e6572000000000000000000000000000000000000000000000000000000602082015250565b7f4552433732313a20746f6b656e20616c7265616479206d696e74656400000000600082015250565b7f4552433732313a207472616e7366657220746f20746865207a65726f2061646460008201527f7265737300000000000000000000000000000000000000000000000000000000602082015250565b7f4552433732313a20617070726f766520746f2063616c6c657200000000000000600082015250565b7f4552433732313a2061646472657373207a65726f206973206e6f74206120766160008201527f6c6964206f776e65720000000000000000000000000000000000000000000000602082015250565b7f45524337323155524953746f726167653a2055524920736574206f66206e6f6e60008201527f6578697374656e7420746f6b656e000000000000000000000000000000000000602082015250565b7f506c65617365207375626d6974207468652061736b696e67207072696365206960008201527f6e206f7264657220746f20636f6d706c65746520746865207075726368617365602082015250565b7f4552433732313a206d696e7420746f20746865207a65726f2061646472657373600082015250565b7f4f6e6c79206974656d206f776e65722063616e20706572666f726d207468697360008201527f206f7065726174696f6e00000000000000000000000000000000000000000000602082015250565b7f6f6e6c79206f776e6572206f6620746865206d61726b6574706c61636520636160008201527f6e206368616e676520746865206c697374696e67207072696365000000000000602082015250565b7f4552433732313a20696e76616c696420746f6b656e2049440000000000000000600082015250565b7f4552433732313a20617070726f76616c20746f2063757272656e74206f776e6560008201527f7200000000000000000000000000000000000000000000000000000000000000602082015250565b7f5072696365206d75737420626520657175616c20746f206c697374696e67207060008201527f7269636500000000000000000000000000000000000000000000000000000000602082015250565b7f4552433732313a20617070726f76652063616c6c6572206973206e6f7420746f60008201527f6b656e206f776e6572206f7220617070726f76656420666f7220616c6c000000602082015250565b7f4f6e6c79206d61726b6574706c616365206f776e65722063616e20757064617460008201527f65206c697374696e672070726963652e00000000000000000000000000000000602082015250565b7f5072696365206d757374206265206174206c6561737420312077656900000000600082015250565b61436d81613c59565b811461437857600080fd5b50565b61438481613c7d565b811461438f57600080fd5b50565b61439b81613c89565b81146143a657600080fd5b50565b6143b281613cd5565b81146143bd57600080fd5b5056fea26469706673582212207dc20dbbb772e073b71573e6cb387e0e3cc3127238a8135c231230eb3b5fd90264736f6c63430008040033",
  "immutableReferences": {},
  "source": "// SPDX-License-Identifier: MIT\r\npragma solidity ^0.8.4;\r\n\r\nimport \"@openzeppelin/contracts/utils/Counters.sol\";\r\nimport \"@openzeppelin/contracts/token/ERC721/extensions/ERC721URIStorage.sol\";\r\nimport \"@openzeppelin/contracts/token/ERC721/ERC721.sol\";\r\n\r\n// import \"hardhat/console.sol\";\r\n\r\ncontract NFTMarketplace is ERC721URIStorage {\r\n    using Counters for Counters.Counter;\r\n    Counters.Counter private _tokenIds;\r\n    Counters.Counter private _itemsSold;\r\n\r\n    string public contractName;\r\n    uint256 listingPrice = 0.025 ether;\r\n    address payable owner;\r\n\r\n    mapping(uint256 => MarketItem) private idToMarketItem;\r\n\r\n    struct MarketItem {\r\n        uint256 tokenId;\r\n        address payable seller;\r\n        address payable owner;\r\n        uint256 price;\r\n        bool sold;\r\n    }\r\n\r\n    event MarketItemCreated(\r\n        uint256 indexed tokenId,\r\n        address seller,\r\n        address owner,\r\n        uint256 price,\r\n        bool sold\r\n    );\r\n\r\n    modifier onlyOwner() {\r\n        require(\r\n            msg.sender == owner,\r\n            \"only owner of the marketplace can change the listing price\"\r\n        );\r\n        _;\r\n    }\r\n\r\n    constructor() ERC721(\"NFTMarketplace\", \"METT\") {\r\n        owner = payable(msg.sender);\r\n        contractName = \"NFT Marketplace\";\r\n    }\r\n\r\n    /* Updates the listing price of the contract */\r\n    function updateListingPrice(\r\n        uint256 _listingPrice\r\n    ) public payable onlyOwner {\r\n        require(\r\n            owner == msg.sender,\r\n            \"Only marketplace owner can update listing price.\"\r\n        );\r\n        listingPrice = _listingPrice;\r\n    }\r\n\r\n    /* Returns the listing price of the contract */\r\n    function getListingPrice() public view returns (uint256) {\r\n        return listingPrice;\r\n    }\r\n\r\n    /* Mints a token and lists it in the marketplace */\r\n    function createToken(\r\n        string memory tokenURI,\r\n        uint256 price\r\n    ) public payable returns (uint256) {\r\n        _tokenIds.increment();\r\n        uint256 newTokenId = _tokenIds.current();\r\n\r\n        _mint(msg.sender, newTokenId);\r\n        _setTokenURI(newTokenId, tokenURI);\r\n        createMarketItem(newTokenId, price);\r\n        return newTokenId;\r\n    }\r\n\r\n    function createMarketItem(uint256 tokenId, uint256 price) private {\r\n        require(price > 0, \"Price must be at least 1 wei\");\r\n        require(\r\n            msg.value == listingPrice,\r\n            \"Price must be equal to listing price\"\r\n        );\r\n\r\n        idToMarketItem[tokenId] = MarketItem(\r\n            tokenId,\r\n            payable(msg.sender),\r\n            payable(address(this)),\r\n            price,\r\n            false\r\n        );\r\n\r\n        _transfer(msg.sender, address(this), tokenId);\r\n        emit MarketItemCreated(\r\n            tokenId,\r\n            msg.sender,\r\n            address(this),\r\n            price,\r\n            false\r\n        );\r\n    }\r\n\r\n    /* allows someone to resell a token they have purchased */\r\n    function resellToken(uint256 tokenId, uint256 price) public payable {\r\n        require(\r\n            idToMarketItem[tokenId].owner == msg.sender,\r\n            \"Only item owner can perform this operation\"\r\n        );\r\n        require(\r\n            msg.value == listingPrice,\r\n            \"Price must be equal to listing price\"\r\n        );\r\n        idToMarketItem[tokenId].sold = false;\r\n        idToMarketItem[tokenId].price = price;\r\n        idToMarketItem[tokenId].seller = payable(msg.sender);\r\n        idToMarketItem[tokenId].owner = payable(address(this));\r\n        _itemsSold.decrement();\r\n\r\n        _transfer(msg.sender, address(this), tokenId);\r\n    }\r\n\r\n    /* Creates the sale of a marketplace item */\r\n    /* Transfers ownership of the item, as well as funds between parties */\r\n    function createMarketSale(uint256 tokenId) public payable {\r\n        uint256 price = idToMarketItem[tokenId].price;\r\n        require(\r\n            msg.value == price,\r\n            \"Please submit the asking price in order to complete the purchase\"\r\n        );\r\n        idToMarketItem[tokenId].owner = payable(msg.sender);\r\n        idToMarketItem[tokenId].sold = true;\r\n        idToMarketItem[tokenId].seller = payable(address(0));\r\n        _itemsSold.increment();\r\n        _transfer(address(this), msg.sender, tokenId);\r\n        payable(owner).transfer(listingPrice);\r\n        payable(idToMarketItem[tokenId].seller).transfer(msg.value);\r\n    }\r\n\r\n    /* Returns all unsold market items */\r\n    function fetchMarketItems() public view returns (MarketItem[] memory) {\r\n        uint256 itemCount = _tokenIds.current();\r\n        uint256 unsoldItemCount = _tokenIds.current() - _itemsSold.current();\r\n        uint256 currentIndex = 0;\r\n\r\n        MarketItem[] memory items = new MarketItem[](unsoldItemCount);\r\n        for (uint256 i = 0; i < itemCount; i++) {\r\n            if (idToMarketItem[i + 1].owner == address(this)) {\r\n                uint256 currentId = i + 1;\r\n                MarketItem storage currentItem = idToMarketItem[currentId];\r\n                items[currentIndex] = currentItem;\r\n                currentIndex += 1;\r\n            }\r\n        }\r\n        return items;\r\n    }\r\n\r\n    /* Returns only items that a user has purchased */\r\n    function fetchMyNFTs() public view returns (MarketItem[] memory) {\r\n        uint256 totalItemCount = _tokenIds.current();\r\n        uint256 itemCount = 0;\r\n        uint256 currentIndex = 0;\r\n\r\n        for (uint256 i = 0; i < totalItemCount; i++) {\r\n            if (idToMarketItem[i + 1].owner == msg.sender) {\r\n                itemCount += 1;\r\n            }\r\n        }\r\n\r\n        MarketItem[] memory items = new MarketItem[](itemCount);\r\n        for (uint256 i = 0; i < totalItemCount; i++) {\r\n            if (idToMarketItem[i + 1].owner == msg.sender) {\r\n                uint256 currentId = i + 1;\r\n                MarketItem storage currentItem = idToMarketItem[currentId];\r\n                items[currentIndex] = currentItem;\r\n                currentIndex += 1;\r\n            }\r\n        }\r\n        return items;\r\n    }\r\n\r\n    /* Returns only items a user has listed */\r\n    function fetchItemsListed() public view returns (MarketItem[] memory) {\r\n        uint256 totalItemCount = _tokenIds.current();\r\n        uint256 itemCount = 0;\r\n        uint256 currentIndex = 0;\r\n\r\n        for (uint256 i = 0; i < totalItemCount; i++) {\r\n            if (idToMarketItem[i + 1].seller == msg.sender) {\r\n                itemCount += 1;\r\n            }\r\n        }\r\n\r\n        MarketItem[] memory items = new MarketItem[](itemCount);\r\n        for (uint256 i = 0; i < totalItemCount; i++) {\r\n            if (idToMarketItem[i + 1].seller == msg.sender) {\r\n                uint256 currentId = i + 1;\r\n                MarketItem storage currentItem = idToMarketItem[currentId];\r\n                items[currentIndex] = currentItem;\r\n                currentIndex += 1;\r\n            }\r\n        }\r\n        return items;\r\n    }\r\n}\r\n",
  "sourcePath": "C:\\Users\\soham\\Documents\\nft-test\\contracts\\NFTMarketplace.sol",
  "compiler": {
    "name": "solc",
    "version": "0.8.4+commit.c7e474f2.Emscripten.clang"
  },
  "schemaVersion": "3.4.13",
  "updatedAt": "2023-04-28T10:09:59.250Z",
  "networkType": "ethereum",
  "devdoc": {
    "kind": "dev",
    "methods": {
      "approve(address,uint256)": {
        "details": "See {IERC721-approve}."
      },
      "balanceOf(address)": {
        "details": "See {IERC721-balanceOf}."
      },
      "getApproved(uint256)": {
        "details": "See {IERC721-getApproved}."
      },
      "isApprovedForAll(address,address)": {
        "details": "See {IERC721-isApprovedForAll}."
      },
      "name()": {
        "details": "See {IERC721Metadata-name}."
      },
      "ownerOf(uint256)": {
        "details": "See {IERC721-ownerOf}."
      },
      "safeTransferFrom(address,address,uint256)": {
        "details": "See {IERC721-safeTransferFrom}."
      },
      "safeTransferFrom(address,address,uint256,bytes)": {
        "details": "See {IERC721-safeTransferFrom}."
      },
      "setApprovalForAll(address,bool)": {
        "details": "See {IERC721-setApprovalForAll}."
      },
      "supportsInterface(bytes4)": {
        "details": "See {IERC165-supportsInterface}."
      },
      "symbol()": {
        "details": "See {IERC721Metadata-symbol}."
      },
      "tokenURI(uint256)": {
        "details": "See {IERC721Metadata-tokenURI}."
      },
      "transferFrom(address,address,uint256)": {
        "details": "See {IERC721-transferFrom}."
      }
    },
    "version": 1
  },
  "userdoc": {
    "kind": "user",
    "methods": {},
    "version": 1
  }
}