{
  "contractName": "TransferFunds",
  "abi": [
    {
      "anonymous": false,
      "inputs": [
        {
          "indexed": false,
          "internalType": "address",
          "name": "from",
          "type": "address"
        },
        {
          "indexed": false,
          "internalType": "address",
          "name": "receiver",
          "type": "address"
        },
        {
          "indexed": false,
          "internalType": "uint256",
          "name": "amount",
          "type": "uint256"
        },
        {
          "indexed": false,
          "internalType": "string",
          "name": "message",
          "type": "string"
        },
        {
          "indexed": false,
          "internalType": "uint256",
          "name": "timestamp",
          "type": "uint256"
        }
      ],
      "name": "TransferEvent",
      "type": "event"
    },
    {
      "inputs": [
        {
          "internalType": "address payable",
          "name": "receiver",
          "type": "address"
        },
        {
          "internalType": "uint256",
          "name": "amount",
          "type": "uint256"
        },
        {
          "internalType": "string",
          "name": "message",
          "type": "string"
        }
      ],
      "name": "addDataToBlockchain",
      "outputs": [],
      "stateMutability": "nonpayable",
      "type": "function"
    },
    {
      "inputs": [],
      "name": "getAllTransactions",
      "outputs": [
        {
          "components": [
            {
              "internalType": "address",
              "name": "sender",
              "type": "address"
            },
            {
              "internalType": "address",
              "name": "receiver",
              "type": "address"
            },
            {
              "internalType": "uint256",
              "name": "amount",
              "type": "uint256"
            },
            {
              "internalType": "string",
              "name": "message",
              "type": "string"
            },
            {
              "internalType": "uint256",
              "name": "timestamp",
              "type": "uint256"
            }
          ],
          "internalType": "struct TransferFunds.TransferFundsStruck[]",
          "name": "",
          "type": "tuple[]"
        }
      ],
      "stateMutability": "view",
      "type": "function"
    },
    {
      "inputs": [],
      "name": "getTransactionCount",
      "outputs": [
        {
          "internalType": "uint256",
          "name": "",
          "type": "uint256"
        }
      ],
      "stateMutability": "view",
      "type": "function"
    }
  ],
  "bytecode": "0x608060405234801561001057600080fd5b50610b20806100206000396000f3fe608060405234801561001057600080fd5b50600436106100415760003560e01c806327506f53146100465780632e7700f0146100645780633a0a073314610082575b600080fd5b61004e61009e565b60405161005b91906107a6565b60405180910390f35b61006c61024f565b60405161007991906107c8565b60405180910390f35b61009c60048036038101906100979190610529565b610258565b005b60606001805480602002602001604051908101604052809291908181526020016000905b8282101561024657838290600052602060002090600502016040518060a00160405290816000820160009054906101000a900473ffffffffffffffffffffffffffffffffffffffff1673ffffffffffffffffffffffffffffffffffffffff1673ffffffffffffffffffffffffffffffffffffffff1681526020016001820160009054906101000a900473ffffffffffffffffffffffffffffffffffffffff1673ffffffffffffffffffffffffffffffffffffffff1673ffffffffffffffffffffffffffffffffffffffff168152602001600282015481526020016003820180546101ab906109bb565b80601f01602080910402602001604051908101604052809291908181526020018280546101d7906109bb565b80156102245780601f106101f957610100808354040283529160200191610224565b820191906000526020600020905b81548152906001019060200180831161020757829003601f168201915b50505050508152602001600482015481525050815260200190600101906100c2565b50505050905090565b60008054905090565b600160008082825461026a919061089f565b9250508190555060016040518060a001604052803373ffffffffffffffffffffffffffffffffffffffff1681526020018573ffffffffffffffffffffffffffffffffffffffff16815260200184815260200183815260200142815250908060018154018082558091505060019003906000526020600020906005020160009091909190915060008201518160000160006101000a81548173ffffffffffffffffffffffffffffffffffffffff021916908373ffffffffffffffffffffffffffffffffffffffff16021790555060208201518160010160006101000a81548173ffffffffffffffffffffffffffffffffffffffff021916908373ffffffffffffffffffffffffffffffffffffffff1602179055506040820151816002015560608201518160030190805190602001906103a39291906103f4565b506080820151816004015550507f3cf6265a3418fd153ac0fad02c457db25dda3d9006869d68880a17c525b626b333848484426040516103e795949392919061074c565b60405180910390a1505050565b828054610400906109bb565b90600052602060002090601f0160209004810192826104225760008555610469565b82601f1061043b57805160ff1916838001178555610469565b82800160010185558215610469579182015b8281111561046857825182559160200191906001019061044d565b5b509050610476919061047a565b5090565b5b8082111561049357600081600090555060010161047b565b5090565b60006104aa6104a584610808565b6107e3565b9050828152602081018484840111156104c257600080fd5b6104cd848285610979565b509392505050565b6000813590506104e481610abc565b92915050565b600082601f8301126104fb57600080fd5b813561050b848260208601610497565b91505092915050565b60008135905061052381610ad3565b92915050565b60008060006060848603121561053e57600080fd5b600061054c868287016104d5565b935050602061055d86828701610514565b925050604084013567ffffffffffffffff81111561057a57600080fd5b610586868287016104ea565b9150509250925092565b600061059c83836106b8565b905092915050565b6105ad81610943565b82525050565b6105bc816108f5565b82525050565b6105cb816108f5565b82525050565b60006105dc82610849565b6105e6818561086c565b9350836020820285016105f885610839565b8060005b8581101561063457848403895281516106158582610590565b94506106208361085f565b925060208a019950506001810190506105fc565b50829750879550505050505092915050565b600061065182610854565b61065b818561087d565b935061066b818560208601610988565b61067481610aab565b840191505092915050565b600061068a82610854565b610694818561088e565b93506106a4818560208601610988565b6106ad81610aab565b840191505092915050565b600060a0830160008301516106d060008601826105b3565b5060208301516106e360208601826105b3565b5060408301516106f6604086018261072e565b506060830151848203606086015261070e8282610646565b9150506080830151610723608086018261072e565b508091505092915050565b61073781610939565b82525050565b61074681610939565b82525050565b600060a08201905061076160008301886105c2565b61076e60208301876105a4565b61077b604083018661073d565b818103606083015261078d818561067f565b905061079c608083018461073d565b9695505050505050565b600060208201905081810360008301526107c081846105d1565b905092915050565b60006020820190506107dd600083018461073d565b92915050565b60006107ed6107fe565b90506107f982826109ed565b919050565b6000604051905090565b600067ffffffffffffffff82111561082357610822610a7c565b5b61082c82610aab565b9050602081019050919050565b6000819050602082019050919050565b600081519050919050565b600081519050919050565b6000602082019050919050565b600082825260208201905092915050565b600082825260208201905092915050565b600082825260208201905092915050565b60006108aa82610939565b91506108b583610939565b9250827fffffffffffffffffffffffffffffffffffffffffffffffffffffffffffffffff038211156108ea576108e9610a1e565b5b828201905092915050565b600061090082610919565b9050919050565b600061091282610919565b9050919050565b600073ffffffffffffffffffffffffffffffffffffffff82169050919050565b6000819050919050565b600061094e82610955565b9050919050565b600061096082610967565b9050919050565b600061097282610919565b9050919050565b82818337600083830152505050565b60005b838110156109a657808201518184015260208101905061098b565b838111156109b5576000848401525b50505050565b600060028204905060018216806109d357607f821691505b602082108114156109e7576109e6610a4d565b5b50919050565b6109f682610aab565b810181811067ffffffffffffffff82111715610a1557610a14610a7c565b5b80604052505050565b7f4e487b7100000000000000000000000000000000000000000000000000000000600052601160045260246000fd5b7f4e487b7100000000000000000000000000000000000000000000000000000000600052602260045260246000fd5b7f4e487b7100000000000000000000000000000000000000000000000000000000600052604160045260246000fd5b6000601f19601f8301169050919050565b610ac581610907565b8114610ad057600080fd5b50565b610adc81610939565b8114610ae757600080fd5b5056fea264697066735822122079767d8fa048f135dea7ac8030bc02017e77538ced1f7fb4ade02e0a7ccaf93164736f6c63430008040033",
  "immutableReferences": {},
  "source": "// SPDX-License-Identifier: MIT\r\npragma solidity ^0.8.4;\r\n\r\ncontract TransferFunds {\r\n    uint256 transactionCount;\r\n\r\n    event TransferEvent(\r\n        address from,\r\n        address receiver,\r\n        uint256 amount,\r\n        string message,\r\n        uint256 timestamp\r\n    );\r\n\r\n    struct TransferFundsStruck {\r\n        address sender;\r\n        address receiver;\r\n        uint256 amount;\r\n        string message;\r\n        uint256 timestamp;\r\n    }\r\n\r\n    TransferFundsStruck[] transactions;\r\n\r\n    function addDataToBlockchain(\r\n        address payable receiver,\r\n        uint256 amount,\r\n        string memory message\r\n    ) public {\r\n        transactionCount += 1;\r\n        transactions.push(\r\n            TransferFundsStruck(\r\n                msg.sender,\r\n                receiver,\r\n                amount,\r\n                message,\r\n                block.timestamp\r\n            )\r\n        );\r\n\r\n        emit TransferEvent(\r\n            msg.sender,\r\n            receiver,\r\n            amount,\r\n            message,\r\n            block.timestamp\r\n        );\r\n    }\r\n\r\n    function getAllTransactions()\r\n        public\r\n        view\r\n        returns (TransferFundsStruck[] memory)\r\n    {\r\n        return transactions;\r\n    }\r\n\r\n    function getTransactionCount() public view returns (uint256) {\r\n        return transactionCount;\r\n    }\r\n}\r\n",
  "sourcePath": "C:\\Users\\soham\\Documents\\nft-test\\contracts\\TransferFunds.sol",
  "compiler": {
    "name": "solc",
    "version": "0.8.4+commit.c7e474f2.Emscripten.clang"
  },
  "schemaVersion": "3.4.13",
  "updatedAt": "2023-04-28T10:09:56.618Z",
  "devdoc": {
    "kind": "dev",
    "methods": {},
    "version": 1
  },
  "userdoc": {
    "kind": "user",
    "methods": {},
    "version": 1
  }
}